{
  "contractName": "ERC20",
  "abi": [
    {
      "inputs": [
        {
          "internalType": "string",
          "name": "_name",
          "type": "string"
        },
        {
          "internalType": "string",
          "name": "_Symbol",
          "type": "string"
        },
        {
          "internalType": "uint256",
          "name": "_supply",
          "type": "uint256"
        },
        {
          "internalType": "uint8",
          "name": "_decimal",
          "type": "uint8"
        }
      ],
      "stateMutability": "nonpayable",
      "type": "constructor"
    },
    {
      "inputs": [
        {
          "internalType": "address",
          "name": "",
          "type": "address"
        }
      ],
      "name": "balances",
      "outputs": [
        {
          "internalType": "uint256",
          "name": "",
          "type": "uint256"
        }
      ],
      "stateMutability": "view",
      "type": "function"
    },
    {
      "inputs": [],
      "name": "name",
      "outputs": [
        {
          "internalType": "string",
          "name": "",
          "type": "string"
        }
      ],
      "stateMutability": "view",
      "type": "function"
    },
    {
      "inputs": [],
      "name": "symbol",
      "outputs": [
        {
          "internalType": "string",
          "name": "",
          "type": "string"
        }
      ],
      "stateMutability": "view",
      "type": "function"
    },
    {
      "inputs": [],
      "name": "decimals",
      "outputs": [
        {
          "internalType": "uint8",
          "name": "",
          "type": "uint8"
        }
      ],
      "stateMutability": "view",
      "type": "function"
    },
    {
      "inputs": [],
      "name": "totalSupply",
      "outputs": [
        {
          "internalType": "uint256",
          "name": "",
          "type": "uint256"
        }
      ],
      "stateMutability": "view",
      "type": "function"
    },
    {
      "inputs": [
        {
          "internalType": "address",
          "name": "_accountAddress",
          "type": "address"
        }
      ],
      "name": "balanceOf",
      "outputs": [
        {
          "internalType": "uint256",
          "name": "",
          "type": "uint256"
        }
      ],
      "stateMutability": "view",
      "type": "function"
    }
  ],
  "bytecode": "0x60806040523480156200001157600080fd5b5060405162000cd438038062000cd48339818101604052810190620000379190620002e1565b8360009081620000489190620005d2565b5082600190816200005a9190620005d2565b508160028190555080600360006101000a81548160ff021916908360ff16021790555081600460003373ffffffffffffffffffffffffffffffffffffffff1673ffffffffffffffffffffffffffffffffffffffff1681526020019081526020016000208190555050505050620006b9565b6000604051905090565b600080fd5b600080fd5b600080fd5b600080fd5b6000601f19601f8301169050919050565b7f4e487b7100000000000000000000000000000000000000000000000000000000600052604160045260246000fd5b6200013482620000e9565b810181811067ffffffffffffffff82111715620001565762000155620000fa565b5b80604052505050565b60006200016b620000cb565b905062000179828262000129565b919050565b600067ffffffffffffffff8211156200019c576200019b620000fa565b5b620001a782620000e9565b9050602081019050919050565b60005b83811015620001d4578082015181840152602081019050620001b7565b83811115620001e4576000848401525b50505050565b600062000201620001fb846200017e565b6200015f565b90508281526020810184848401111562000220576200021f620000e4565b5b6200022d848285620001b4565b509392505050565b600082601f8301126200024d576200024c620000df565b5b81516200025f848260208601620001ea565b91505092915050565b6000819050919050565b6200027d8162000268565b81146200028957600080fd5b50565b6000815190506200029d8162000272565b92915050565b600060ff82169050919050565b620002bb81620002a3565b8114620002c757600080fd5b50565b600081519050620002db81620002b0565b92915050565b60008060008060808587031215620002fe57620002fd620000d5565b5b600085015167ffffffffffffffff8111156200031f576200031e620000da565b5b6200032d8782880162000235565b945050602085015167ffffffffffffffff811115620003515762000350620000da565b5b6200035f8782880162000235565b935050604062000372878288016200028c565b92505060606200038587828801620002ca565b91505092959194509250565b600081519050919050565b7f4e487b7100000000000000000000000000000000000000000000000000000000600052602260045260246000fd5b60006002820490506001821680620003e457607f821691505b602082108103620003fa57620003f96200039c565b5b50919050565b60008190508160005260206000209050919050565b60006020601f8301049050919050565b600082821b905092915050565b600060088302620004647fffffffffffffffffffffffffffffffffffffffffffffffffffffffffffffffff8262000425565b62000470868362000425565b95508019841693508086168417925050509392505050565b6000819050919050565b6000620004b3620004ad620004a78462000268565b62000488565b62000268565b9050919050565b6000819050919050565b620004cf8362000492565b620004e7620004de82620004ba565b84845462000432565b825550505050565b600090565b620004fe620004ef565b6200050b818484620004c4565b505050565b5b81811015620005335762000527600082620004f4565b60018101905062000511565b5050565b601f82111562000582576200054c8162000400565b620005578462000415565b8101602085101562000567578190505b6200057f620005768562000415565b83018262000510565b50505b505050565b600082821c905092915050565b6000620005a76000198460080262000587565b1980831691505092915050565b6000620005c2838362000594565b9150826002028217905092915050565b620005dd8262000391565b67ffffffffffffffff811115620005f957620005f8620000fa565b5b620006058254620003cb565b6200061282828562000537565b600060209050601f8311600181146200064a576000841562000635578287015190505b620006418582620005b4565b865550620006b1565b601f1984166200065a8662000400565b60005b8281101562000684578489015182556001820191506020850194506020810190506200065d565b86831015620006a45784890151620006a0601f89168262000594565b8355505b6001600288020188555050505b505050505050565b61060b80620006c96000396000f3fe608060405234801561001057600080fd5b50600436106100625760003560e01c806306fdde031461006757806318160ddd1461008557806327e235e3146100a3578063313ce567146100d357806370a08231146100f157806395d89b4114610121575b600080fd5b61006f61013f565b60405161007c91906103ec565b60405180910390f35b61008d6101d1565b60405161009a9190610427565b60405180910390f35b6100bd60048036038101906100b891906104a5565b6101db565b6040516100ca9190610427565b60405180910390f35b6100db6101f3565b6040516100e891906104ee565b60405180910390f35b61010b600480360381019061010691906104a5565b61020a565b6040516101189190610427565b60405180910390f35b6101296102c1565b60405161013691906103ec565b60405180910390f35b60606000805461014e90610538565b80601f016020809104026020016040519081016040528092919081815260200182805461017a90610538565b80156101c75780601f1061019c576101008083540402835291602001916101c7565b820191906000526020600020905b8154815290600101906020018083116101aa57829003601f168201915b5050505050905090565b6000600254905090565b60046020528060005260406000206000915090505481565b6000600360009054906101000a900460ff16905090565b60008073ffffffffffffffffffffffffffffffffffffffff168273ffffffffffffffffffffffffffffffffffffffff160361027a576040517f08c379a0000000000000000000000000000000000000000000000000000000008152600401610271906105b5565b60405180910390fd5b600460008373ffffffffffffffffffffffffffffffffffffffff1673ffffffffffffffffffffffffffffffffffffffff168152602001908152602001600020549050919050565b6060600180546102d090610538565b80601f01602080910402602001604051908101604052809291908181526020018280546102fc90610538565b80156103495780601f1061031e57610100808354040283529160200191610349565b820191906000526020600020905b81548152906001019060200180831161032c57829003601f168201915b5050505050905090565b600081519050919050565b600082825260208201905092915050565b60005b8381101561038d578082015181840152602081019050610372565b8381111561039c576000848401525b50505050565b6000601f19601f8301169050919050565b60006103be82610353565b6103c8818561035e565b93506103d881856020860161036f565b6103e1816103a2565b840191505092915050565b6000602082019050818103600083015261040681846103b3565b905092915050565b6000819050919050565b6104218161040e565b82525050565b600060208201905061043c6000830184610418565b92915050565b600080fd5b600073ffffffffffffffffffffffffffffffffffffffff82169050919050565b600061047282610447565b9050919050565b61048281610467565b811461048d57600080fd5b50565b60008135905061049f81610479565b92915050565b6000602082840312156104bb576104ba610442565b5b60006104c984828501610490565b91505092915050565b600060ff82169050919050565b6104e8816104d2565b82525050565b600060208201905061050360008301846104df565b92915050565b7f4e487b7100000000000000000000000000000000000000000000000000000000600052602260045260246000fd5b6000600282049050600182168061055057607f821691505b60208210810361056357610562610509565b5b50919050565b7f496e76616c696420416464726573730000000000000000000000000000000000600082015250565b600061059f600f8361035e565b91506105aa82610569565b602082019050919050565b600060208201905081810360008301526105ce81610592565b905091905056fea26469706673582212207be23a167da8bbbbe3dcba15ee04acb943892275edcc1ec789f41ac2fbd305ab64736f6c634300080f0033",
  "immutableReferences": {},
  "source": "// SPDX-License-Identifier: Maruthi Vanguri\r\npragma solidity ^0.8.0;\r\n\r\nimport \"./IERC20.sol\";\r\n\r\ncontract ERC20 is IERC20{\r\n\r\n    string tokenName;\r\n    string tokenSymbol;\r\n    uint256 totalTokens;\r\n    uint8 decimal;\r\n    address owner;\r\n\r\n    mapping(address => uint256) public balances;\r\n\r\n    constructor(string memory _name, string memory _Symbol, uint256 _supply, uint8 _decimal){\r\n    //constructor(){\r\n        tokenName = _name;\r\n        tokenSymbol = _Symbol;\r\n        totalTokens = _supply;\r\n        decimal = _decimal;\r\n        balances[msg.sender]=_supply;\r\n    }\r\n\r\n    function name() public override view returns (string memory){\r\n        return(tokenName);\r\n    }\r\n\r\n    function symbol() public override view returns(string memory){\r\n        return(tokenSymbol);\r\n    }\r\n\r\n    function decimals() public override view returns(uint8){\r\n        return(decimal);\r\n    }\r\n    \r\n    function totalSupply() public override view returns(uint256){\r\n        return(totalTokens);\r\n    }\r\n\r\n    function balanceOf(address _accountAddress) public override view returns(uint256){\r\n        require(_accountAddress != address(0),\"Invalid Address\");\r\n        return(balances[_accountAddress]);\r\n    }\r\n\r\n\r\n}\r\n",
  "sourcePath": "C:\\Users\\marut\\Documents\\GitHub\\capstone-project\\ERC20\\contracts\\ERC20.sol",
  "compiler": {
    "name": "solc",
    "version": "0.8.15+commit.e14f2714.Emscripten.clang"
  },
  "schemaVersion": "3.4.7",
  "updatedAt": "2022-07-04T14:28:07.839Z",
  "devdoc": {
    "kind": "dev",
    "methods": {},
    "version": 1
  },
  "userdoc": {
    "kind": "user",
    "methods": {},
    "version": 1
  }
}