{
  "contractName": "ERC20",
  "abi": [
    {
      "inputs": [
        {
          "internalType": "string",
          "name": "_name",
          "type": "string"
        },
        {
          "internalType": "string",
          "name": "_Symbol",
          "type": "string"
        },
        {
          "internalType": "uint256",
          "name": "_supply",
          "type": "uint256"
        },
        {
          "internalType": "uint8",
          "name": "_decimal",
          "type": "uint8"
        }
      ],
      "stateMutability": "nonpayable",
      "type": "constructor"
    },
    {
      "anonymous": false,
      "inputs": [
        {
          "indexed": true,
          "internalType": "address",
          "name": "from",
          "type": "address"
        },
        {
          "indexed": true,
          "internalType": "address",
          "name": "to",
          "type": "address"
        },
        {
          "indexed": false,
          "internalType": "uint256",
          "name": "tokens",
          "type": "uint256"
        }
      ],
      "name": "Transfer",
      "type": "event"
    },
    {
      "inputs": [],
      "name": "name",
      "outputs": [
        {
          "internalType": "string",
          "name": "",
          "type": "string"
        }
      ],
      "stateMutability": "view",
      "type": "function",
      "constant": true
    },
    {
      "inputs": [],
      "name": "symbol",
      "outputs": [
        {
          "internalType": "string",
          "name": "",
          "type": "string"
        }
      ],
      "stateMutability": "view",
      "type": "function",
      "constant": true
    },
    {
      "inputs": [],
      "name": "decimals",
      "outputs": [
        {
          "internalType": "uint8",
          "name": "",
          "type": "uint8"
        }
      ],
      "stateMutability": "view",
      "type": "function",
      "constant": true
    },
    {
      "inputs": [],
      "name": "totalSupply",
      "outputs": [
        {
          "internalType": "uint256",
          "name": "",
          "type": "uint256"
        }
      ],
      "stateMutability": "view",
      "type": "function",
      "constant": true
    },
    {
      "inputs": [
        {
          "internalType": "address",
          "name": "_accountAddress",
          "type": "address"
        }
      ],
      "name": "balanceOf",
      "outputs": [
        {
          "internalType": "uint256",
          "name": "",
          "type": "uint256"
        }
      ],
      "stateMutability": "view",
      "type": "function",
      "constant": true
    },
    {
      "inputs": [
        {
          "internalType": "address",
          "name": "_from",
          "type": "address"
        },
        {
          "internalType": "address",
          "name": "_to",
          "type": "address"
        },
        {
          "internalType": "uint256",
          "name": "_value",
          "type": "uint256"
        }
      ],
      "name": "transferFrom",
      "outputs": [
        {
          "internalType": "bool",
          "name": "",
          "type": "bool"
        }
      ],
      "stateMutability": "nonpayable",
      "type": "function"
    },
    {
      "inputs": [
        {
          "internalType": "address",
          "name": "_to",
          "type": "address"
        },
        {
          "internalType": "uint256",
          "name": "_value",
          "type": "uint256"
        }
      ],
      "name": "transfer",
      "outputs": [
        {
          "internalType": "bool",
          "name": "",
          "type": "bool"
        }
      ],
      "stateMutability": "nonpayable",
      "type": "function"
    }
  ],
  "bytecode": "0x60806040523480156200001157600080fd5b50604051620012d6380380620012d6833981810160405281019062000037919062000329565b83600090816200004891906200061a565b5082600190816200005a91906200061a565b508160028190555080600460006101000a81548160ff021916908360ff1602179055508160038190555081600560003373ffffffffffffffffffffffffffffffffffffffff1673ffffffffffffffffffffffffffffffffffffffff1681526020019081526020016000208190555033600460016101000a81548173ffffffffffffffffffffffffffffffffffffffff021916908373ffffffffffffffffffffffffffffffffffffffff1602179055505050505062000701565b6000604051905090565b600080fd5b600080fd5b600080fd5b600080fd5b6000601f19601f8301169050919050565b7f4e487b7100000000000000000000000000000000000000000000000000000000600052604160045260246000fd5b6200017c8262000131565b810181811067ffffffffffffffff821117156200019e576200019d62000142565b5b80604052505050565b6000620001b362000113565b9050620001c1828262000171565b919050565b600067ffffffffffffffff821115620001e457620001e362000142565b5b620001ef8262000131565b9050602081019050919050565b60005b838110156200021c578082015181840152602081019050620001ff565b838111156200022c576000848401525b50505050565b6000620002496200024384620001c6565b620001a7565b9050828152602081018484840111156200026857620002676200012c565b5b62000275848285620001fc565b509392505050565b600082601f83011262000295576200029462000127565b5b8151620002a784826020860162000232565b91505092915050565b6000819050919050565b620002c581620002b0565b8114620002d157600080fd5b50565b600081519050620002e581620002ba565b92915050565b600060ff82169050919050565b6200030381620002eb565b81146200030f57600080fd5b50565b6000815190506200032381620002f8565b92915050565b600080600080608085870312156200034657620003456200011d565b5b600085015167ffffffffffffffff81111562000367576200036662000122565b5b62000375878288016200027d565b945050602085015167ffffffffffffffff81111562000399576200039862000122565b5b620003a7878288016200027d565b9350506040620003ba87828801620002d4565b9250506060620003cd8782880162000312565b91505092959194509250565b600081519050919050565b7f4e487b7100000000000000000000000000000000000000000000000000000000600052602260045260246000fd5b600060028204905060018216806200042c57607f821691505b602082108103620004425762000441620003e4565b5b50919050565b60008190508160005260206000209050919050565b60006020601f8301049050919050565b600082821b905092915050565b600060088302620004ac7fffffffffffffffffffffffffffffffffffffffffffffffffffffffffffffffff826200046d565b620004b886836200046d565b95508019841693508086168417925050509392505050565b6000819050919050565b6000620004fb620004f5620004ef84620002b0565b620004d0565b620002b0565b9050919050565b6000819050919050565b6200051783620004da565b6200052f620005268262000502565b8484546200047a565b825550505050565b600090565b6200054662000537565b620005538184846200050c565b505050565b5b818110156200057b576200056f6000826200053c565b60018101905062000559565b5050565b601f821115620005ca57620005948162000448565b6200059f846200045d565b81016020851015620005af578190505b620005c7620005be856200045d565b83018262000558565b50505b505050565b600082821c905092915050565b6000620005ef60001984600802620005cf565b1980831691505092915050565b60006200060a8383620005dc565b9150826002028217905092915050565b6200062582620003d9565b67ffffffffffffffff81111562000641576200064062000142565b5b6200064d825462000413565b6200065a8282856200057f565b600060209050601f8311600181146200069257600084156200067d578287015190505b620006898582620005fc565b865550620006f9565b601f198416620006a28662000448565b60005b82811015620006cc57848901518255600182019150602085019450602081019050620006a5565b86831015620006ec5784890151620006e8601f891682620005dc565b8355505b6001600288020188555050505b505050505050565b610bc580620007116000396000f3fe608060405234801561001057600080fd5b506004361061007d5760003560e01c8063313ce5671161005b578063313ce567146100ee57806370a082311461010c57806395d89b411461013c578063a9059cbb1461015a5761007d565b806306fdde031461008257806318160ddd146100a057806323b872dd146100be575b600080fd5b61008a61018a565b60405161009791906106b4565b60405180910390f35b6100a861021c565b6040516100b591906106ef565b60405180910390f35b6100d860048036038101906100d39190610799565b610226565b6040516100e59190610807565b60405180910390f35b6100f66104a3565b604051610103919061083e565b60405180910390f35b61012660048036038101906101219190610859565b6104ba565b60405161013391906106ef565b60405180910390f35b610144610571565b60405161015191906106b4565b60405180910390f35b610174600480360381019061016f9190610886565b610603565b6040516101819190610807565b60405180910390f35b606060008054610199906108f5565b80601f01602080910402602001604051908101604052809291908181526020018280546101c5906108f5565b80156102125780601f106101e757610100808354040283529160200191610212565b820191906000526020600020905b8154815290600101906020018083116101f557829003601f168201915b5050505050905090565b6000600254905090565b60008073ffffffffffffffffffffffffffffffffffffffff168373ffffffffffffffffffffffffffffffffffffffff1603610296576040517f08c379a000000000000000000000000000000000000000000000000000000000815260040161028d90610972565b60405180910390fd5b600073ffffffffffffffffffffffffffffffffffffffff168473ffffffffffffffffffffffffffffffffffffffff1603610305576040517f08c379a00000000000000000000000000000000000000000000000000000000081526004016102fc906109de565b60405180910390fd5b600560008573ffffffffffffffffffffffffffffffffffffffff1673ffffffffffffffffffffffffffffffffffffffff16815260200190815260200160002054821115610387576040517f08c379a000000000000000000000000000000000000000000000000000000000815260040161037e90610a4a565b60405180910390fd5b81600560008673ffffffffffffffffffffffffffffffffffffffff1673ffffffffffffffffffffffffffffffffffffffff16815260200190815260200160002060008282546103d69190610a99565b9250508190555081600560008573ffffffffffffffffffffffffffffffffffffffff1673ffffffffffffffffffffffffffffffffffffffff168152602001908152602001600020600082825461042c9190610acd565b925050819055508273ffffffffffffffffffffffffffffffffffffffff168473ffffffffffffffffffffffffffffffffffffffff167fddf252ad1be2c89b69c2b068fc378daa952ba7f163c4a11628f55a4df523b3ef8460405161049091906106ef565b60405180910390a3600190509392505050565b6000600460009054906101000a900460ff16905090565b60008073ffffffffffffffffffffffffffffffffffffffff168273ffffffffffffffffffffffffffffffffffffffff160361052a576040517f08c379a000000000000000000000000000000000000000000000000000000000815260040161052190610b6f565b60405180910390fd5b600560008373ffffffffffffffffffffffffffffffffffffffff1673ffffffffffffffffffffffffffffffffffffffff168152602001908152602001600020549050919050565b606060018054610580906108f5565b80601f01602080910402602001604051908101604052809291908181526020018280546105ac906108f5565b80156105f95780601f106105ce576101008083540402835291602001916105f9565b820191906000526020600020905b8154815290600101906020018083116105dc57829003601f168201915b5050505050905090565b6000610610338484610226565b506001905092915050565b600081519050919050565b600082825260208201905092915050565b60005b8381101561065557808201518184015260208101905061063a565b83811115610664576000848401525b50505050565b6000601f19601f8301169050919050565b60006106868261061b565b6106908185610626565b93506106a0818560208601610637565b6106a98161066a565b840191505092915050565b600060208201905081810360008301526106ce818461067b565b905092915050565b6000819050919050565b6106e9816106d6565b82525050565b600060208201905061070460008301846106e0565b92915050565b600080fd5b600073ffffffffffffffffffffffffffffffffffffffff82169050919050565b600061073a8261070f565b9050919050565b61074a8161072f565b811461075557600080fd5b50565b60008135905061076781610741565b92915050565b610776816106d6565b811461078157600080fd5b50565b6000813590506107938161076d565b92915050565b6000806000606084860312156107b2576107b161070a565b5b60006107c086828701610758565b93505060206107d186828701610758565b92505060406107e286828701610784565b9150509250925092565b60008115159050919050565b610801816107ec565b82525050565b600060208201905061081c60008301846107f8565b92915050565b600060ff82169050919050565b61083881610822565b82525050565b6000602082019050610853600083018461082f565b92915050565b60006020828403121561086f5761086e61070a565b5b600061087d84828501610758565b91505092915050565b6000806040838503121561089d5761089c61070a565b5b60006108ab85828601610758565b92505060206108bc85828601610784565b9150509250929050565b7f4e487b7100000000000000000000000000000000000000000000000000000000600052602260045260246000fd5b6000600282049050600182168061090d57607f821691505b6020821081036109205761091f6108c6565b5b50919050565b7f496e76616c6964204164647265737320746f2072656365697665000000000000600082015250565b600061095c601a83610626565b915061096782610926565b602082019050919050565b6000602082019050818103600083015261098b8161094f565b9050919050565b7f496e76616c6964204164647265737320746f2073656e64000000000000000000600082015250565b60006109c8601783610626565b91506109d382610992565b602082019050919050565b600060208201905081810360008301526109f7816109bb565b9050919050565b7f496e73756666696369656e742042616c616e6365000000000000000000000000600082015250565b6000610a34601483610626565b9150610a3f826109fe565b602082019050919050565b60006020820190508181036000830152610a6381610a27565b9050919050565b7f4e487b7100000000000000000000000000000000000000000000000000000000600052601160045260246000fd5b6000610aa4826106d6565b9150610aaf836106d6565b925082821015610ac257610ac1610a6a565b5b828203905092915050565b6000610ad8826106d6565b9150610ae3836106d6565b9250827fffffffffffffffffffffffffffffffffffffffffffffffffffffffffffffffff03821115610b1857610b17610a6a565b5b828201905092915050565b7f496e76616c696420416464726573730000000000000000000000000000000000600082015250565b6000610b59600f83610626565b9150610b6482610b23565b602082019050919050565b60006020820190508181036000830152610b8881610b4c565b905091905056fea2646970667358221220d702ffd7825104af3634a27a06337aeda880d1a641266fba077257c2641f4ad464736f6c634300080f0033",
  "immutableReferences": {},
  "source": "// SPDX-License-Identifier: Maruthi Vanguri\r\npragma solidity ^0.8.0;\r\n\r\nimport \"./IERC20.sol\";\r\n\r\ncontract ERC20 is IERC20{\r\n\r\n    string tokenName;\r\n    string tokenSymbol;\r\n    uint256 totalTokens;\r\n    uint256 remainingTokens;\r\n    uint8 decimal;\r\n    address owner;\r\n\r\n    mapping(address => uint256) internal balances;\r\n\r\n    constructor(string memory _name, string memory _Symbol, uint256 _supply, uint8 _decimal){\r\n    //constructor(){\r\n        tokenName = _name;\r\n        tokenSymbol = _Symbol;\r\n        totalTokens = _supply;\r\n        decimal = _decimal;\r\n        remainingTokens = _supply;\r\n        balances[msg.sender]=_supply;\r\n        owner = msg.sender;\r\n    }\r\n\r\n    function name() public override view returns (string memory){\r\n        return(tokenName);\r\n    }\r\n\r\n    function symbol() public override view returns(string memory){\r\n        return(tokenSymbol);\r\n    }\r\n\r\n    function decimals() public override view returns(uint8){\r\n        return(decimal);\r\n    }\r\n    \r\n    function totalSupply() public override view returns(uint256){\r\n        return(totalTokens);\r\n    }\r\n\r\n    function balanceOf(address _accountAddress) public override view returns(uint256){\r\n        require(_accountAddress != address(0),\"Invalid Address\");\r\n        return(balances[_accountAddress]);\r\n    }\r\n\r\n    function transferFrom(address _from, address _to, uint256 _value) public override returns(bool){\r\n        require(_to != address(0),\"Invalid Address to receive\");\r\n        require(_from != address(0),\"Invalid Address to send\");\r\n        require(_value <= balances[_from],\"Insufficient Balance\" );\r\n        balances[_from] -= _value;\r\n        balances[_to] += _value;\r\n        emit Transfer(_from, _to, _value);\r\n        return true;\r\n    }\r\n\r\n    function transfer(address _to, uint256 _value) public override returns(bool){\r\n        transferFrom(msg.sender, _to, _value);\r\n        return true;\r\n    }\r\n\r\n\r\n}\r\n",
  "sourcePath": "C:\\Users\\marut\\Documents\\GitHub\\capstone-project\\ERC20\\contracts\\ERC20.sol",
  "compiler": {
    "name": "solc",
    "version": "0.8.15+commit.e14f2714.Emscripten.clang"
  },
  "schemaVersion": "3.4.7",
  "updatedAt": "2022-07-15T13:40:42.445Z",
  "networkType": "ethereum",
  "devdoc": {
    "kind": "dev",
    "methods": {},
    "version": 1
  },
  "userdoc": {
    "kind": "user",
    "methods": {},
    "version": 1
  }
}