{
  "contractName": "ERC20",
  "abi": [
    {
      "inputs": [],
      "stateMutability": "nonpayable",
      "type": "constructor"
    },
    {
      "inputs": [],
      "name": "name",
      "outputs": [
        {
          "internalType": "string",
          "name": "",
          "type": "string"
        }
      ],
      "stateMutability": "view",
      "type": "function",
      "constant": true
    },
    {
      "inputs": [],
      "name": "symbol",
      "outputs": [
        {
          "internalType": "string",
          "name": "",
          "type": "string"
        }
      ],
      "stateMutability": "view",
      "type": "function",
      "constant": true
    },
    {
      "inputs": [],
      "name": "decimals",
      "outputs": [
        {
          "internalType": "uint8",
          "name": "",
          "type": "uint8"
        }
      ],
      "stateMutability": "view",
      "type": "function",
      "constant": true
    },
    {
      "inputs": [],
      "name": "totalSupply",
      "outputs": [
        {
          "internalType": "uint256",
          "name": "",
          "type": "uint256"
        }
      ],
      "stateMutability": "view",
      "type": "function",
      "constant": true
    }
  ],
  "bytecode": "0x608060405234801561001057600080fd5b506040518060400160405280600a81526020017f4d61727a20546f6b656e00000000000000000000000000000000000000000000815250600090816100559190610357565b506040518060400160405280600381526020017f4d745a00000000000000000000000000000000000000000000000000000000008152506001908161009a9190610357565b50620186a06002819055506002600360006101000a81548160ff021916908360ff16021790555033600360016101000a81548173ffffffffffffffffffffffffffffffffffffffff021916908373ffffffffffffffffffffffffffffffffffffffff160217905550610429565b600081519050919050565b7f4e487b7100000000000000000000000000000000000000000000000000000000600052604160045260246000fd5b7f4e487b7100000000000000000000000000000000000000000000000000000000600052602260045260246000fd5b6000600282049050600182168061018857607f821691505b60208210810361019b5761019a610141565b5b50919050565b60008190508160005260206000209050919050565b60006020601f8301049050919050565b600082821b905092915050565b6000600883026102037fffffffffffffffffffffffffffffffffffffffffffffffffffffffffffffffff826101c6565b61020d86836101c6565b95508019841693508086168417925050509392505050565b6000819050919050565b6000819050919050565b600061025461024f61024a84610225565b61022f565b610225565b9050919050565b6000819050919050565b61026e83610239565b61028261027a8261025b565b8484546101d3565b825550505050565b600090565b61029761028a565b6102a2818484610265565b505050565b5b818110156102c6576102bb60008261028f565b6001810190506102a8565b5050565b601f82111561030b576102dc816101a1565b6102e5846101b6565b810160208510156102f4578190505b610308610300856101b6565b8301826102a7565b50505b505050565b600082821c905092915050565b600061032e60001984600802610310565b1980831691505092915050565b6000610347838361031d565b9150826002028217905092915050565b61036082610107565b67ffffffffffffffff81111561037957610378610112565b5b6103838254610170565b61038e8282856102ca565b600060209050601f8311600181146103c157600084156103af578287015190505b6103b9858261033b565b865550610421565b601f1984166103cf866101a1565b60005b828110156103f7578489015182556001820191506020850194506020810190506103d2565b868310156104145784890151610410601f89168261031d565b8355505b6001600288020188555050505b505050505050565b6103ca80620004396000396000f3fe608060405234801561001057600080fd5b506004361061004c5760003560e01c806306fdde031461005157806318160ddd1461006f578063313ce5671461008d57806395d89b41146100ab575b600080fd5b6100596100c9565b60405161006691906102a7565b60405180910390f35b61007761015b565b60405161008491906102e2565b60405180910390f35b610095610165565b6040516100a29190610319565b60405180910390f35b6100b361017c565b6040516100c091906102a7565b60405180910390f35b6060600080546100d890610363565b80601f016020809104026020016040519081016040528092919081815260200182805461010490610363565b80156101515780601f1061012657610100808354040283529160200191610151565b820191906000526020600020905b81548152906001019060200180831161013457829003601f168201915b5050505050905090565b6000600254905090565b6000600360009054906101000a900460ff16905090565b60606001805461018b90610363565b80601f01602080910402602001604051908101604052809291908181526020018280546101b790610363565b80156102045780601f106101d957610100808354040283529160200191610204565b820191906000526020600020905b8154815290600101906020018083116101e757829003601f168201915b5050505050905090565b600081519050919050565b600082825260208201905092915050565b60005b8381101561024857808201518184015260208101905061022d565b83811115610257576000848401525b50505050565b6000601f19601f8301169050919050565b60006102798261020e565b6102838185610219565b935061029381856020860161022a565b61029c8161025d565b840191505092915050565b600060208201905081810360008301526102c1818461026e565b905092915050565b6000819050919050565b6102dc816102c9565b82525050565b60006020820190506102f760008301846102d3565b92915050565b600060ff82169050919050565b610313816102fd565b82525050565b600060208201905061032e600083018461030a565b92915050565b7f4e487b7100000000000000000000000000000000000000000000000000000000600052602260045260246000fd5b6000600282049050600182168061037b57607f821691505b60208210810361038e5761038d610334565b5b5091905056fea264697066735822122072d67b9cd665d67b451896e031bdc385045df08b48426ada12d5b701d3becde464736f6c634300080f0033",
  "immutableReferences": {},
  "source": "// SPDX-License-Identifier: Maruthi Vanguri\r\npragma solidity ^0.8.0;\r\n\r\nimport \"./IERC20.sol\";\r\n\r\ncontract ERC20 is IERC20{\r\n\r\n    string tokenName;\r\n    string tokenSymbol;\r\n    uint256 totalTokens;\r\n    uint8 decimal;\r\n    address owner;\r\n\r\n    //constructor(string memory _name, string memory _Symbol, uint256 _supply, uint8 _decimal){\r\n    constructor(){\r\n        tokenName = \"Marz Token\";\r\n        tokenSymbol = \"MtZ\";\r\n        totalTokens = 100000;\r\n        decimal = 2;\r\n        owner = msg.sender;\r\n    }\r\n\r\n    function name() public view returns (string memory){\r\n        return(tokenName);\r\n    }\r\n\r\n    function symbol() public view returns(string memory){\r\n        return(tokenSymbol);\r\n    }\r\n\r\n    function decimals() public view returns(uint8){\r\n        return(decimal);\r\n    }\r\n    \r\n    function totalSupply() public view returns(uint256){\r\n        return(totalTokens);\r\n    }\r\n\r\n\r\n}\r\n",
  "sourcePath": "C:\\Users\\marut\\Documents\\GitHub\\capstone-project\\ERC20\\contracts\\ERC20.sol",
  "compiler": {
    "name": "solc",
    "version": "0.8.15+commit.e14f2714.Emscripten.clang"
  },
  "schemaVersion": "3.4.7",
  "updatedAt": "2022-06-30T06:37:26.100Z",
  "networkType": "ethereum",
  "devdoc": {
    "kind": "dev",
    "methods": {},
    "version": 1
  },
  "userdoc": {
    "kind": "user",
    "methods": {},
    "version": 1
  }
}